{
  "contractName": "Ballot",
  "abi": [
    {
      "constant": true,
      "inputs": [],
      "name": "candidatesCount",
      "outputs": [
        {
          "name": "",
          "type": "uint256"
        }
      ],
      "payable": false,
      "stateMutability": "view",
      "type": "function"
    },
    {
      "constant": true,
      "inputs": [
        {
          "name": "",
          "type": "uint256"
        }
      ],
      "name": "candidates",
      "outputs": [
        {
          "name": "id",
          "type": "uint256"
        },
        {
          "name": "name",
          "type": "bytes32"
        },
        {
          "name": "voteCount",
          "type": "uint256"
        }
      ],
      "payable": false,
      "stateMutability": "view",
      "type": "function"
    },
    {
      "inputs": [
        {
          "name": "_name",
          "type": "bytes32"
        }
      ],
      "payable": false,
      "stateMutability": "nonpayable",
      "type": "constructor"
    },
    {
      "constant": false,
      "inputs": [
        {
          "name": "_name",
          "type": "bytes32"
        }
      ],
      "name": "addCandidate",
      "outputs": [],
      "payable": false,
      "stateMutability": "nonpayable",
      "type": "function"
    }
  ],
  "bytecode": "0x608060405234801561001057600080fd5b506040516020806103138339810180604052602081101561003057600080fd5b81019080805190602001909291905050506100797f43616e64696461746520310000000000000000000000000000000000000000006100b7640100000000026401000000009004565b6100b17f43616e64696461746520320000000000000000000000000000000000000000006100b7640100000000026401000000009004565b50610120565b60016000815480929190600101919050555060606040519081016040528060015481526020018281526020016000815250600080600154815260200190815260200160002060008201518160000155602082015181600101556040820151816002015590505050565b6101e48061012f6000396000f3fe608060405260043610610057576000357c0100000000000000000000000000000000000000000000000000000000900463ffffffff168063230d6ed81461005c5780632d35a8a2146100975780633477ee2e146100c2575b600080fd5b34801561006857600080fd5b506100956004803603602081101561007f57600080fd5b810190808035906020019092919050505061011f565b005b3480156100a357600080fd5b506100ac610188565b6040518082815260200191505060405180910390f35b3480156100ce57600080fd5b506100fb600480360360208110156100e557600080fd5b810190808035906020019092919050505061018e565b60405180848152602001838152602001828152602001935050505060405180910390f35b60016000815480929190600101919050555060606040519081016040528060015481526020018281526020016000815250600080600154815260200190815260200160002060008201518160000155602082015181600101556040820151816002015590505050565b60015481565b6000602052806000526040600020600091509050806000015490806001015490806002015490508356fea165627a7a7230582066218d3644ca145358c520901a38f76fe598b3be8f8acfc01ac0a61e5d4112e90029",
  "source": "pragma solidity >=0.4.22 <0.6.0;\r\n\r\n/// @title Voting with delegation.\r\ncontract Ballot {\r\n    \r\n    struct Candidate {\r\n        uint id; \r\n        //bool voted;  \r\n        bytes32 name; \r\n        uint voteCount;   \r\n    }\r\n\r\n    \r\n    mapping(uint => Candidate) public candidates;\r\n    uint public candidatesCount;\r\n\r\n    constructor(bytes32 _name) public {\r\n    \taddCandidate(\"Candidate 1\");\r\n        addCandidate(\"Candidate 2\");\r\n    }\r\n\r\n    function addCandidate (bytes32 _name) public {\r\n        candidatesCount ++;\r\n        candidates[candidatesCount] = Candidate(candidatesCount, _name, 0);\r\n    }\r\n\r\n    \r\n}",
  "sourcePath": "C:/Users/hp/Desktop/Capstone/vote/contracts/Election.sol",
  "compiler": {
    "name": "solc",
    "version": "0.5.0+commit.1d4f565a.Emscripten.clang"
  },
  "schemaVersion": "3.0.3",
  "updatedAt": "2019-05-18T08:25:07.137Z",
  "devdoc": {
    "methods": {},
    "title": "Voting with delegation."
  },
  "userdoc": {
    "methods": {}
  }
}